:020000040800F2
:1000000000800120F91300087F1200088512000803
:100010008B120008911200089712000800000000DF
:100020000000000000000000000000009D12000819
:10003000AB12000800000000B9120008C712000847
:100040000000000049140008491400084914000881
:10005000491400084914000849140008491400080C
:100060004914000849140008491400080000000061
:100070000000000000000000000000000000000080
:10008000000000000000000049140008000000000B
:1000900000000000000000000000000049140008FB
:1000A00049140008491400084914000849140008BC
:1000B00049140008491400084914000849140008AC
:1000C000491400084914000849140008491400089C
:1000D00049140008491400084914000800000000F1
:1000E00049140008491400084914000800000000E1
:1000F0000000000000000000000000000000000000
:1001000000000000491400084914000849140008C0
:1001100000000000000000000000000000000000DF
:1001200000000000000000000000000000000000CF
:1001300000000000000000000000000000000000BF
:10014000000000000000000000000000491400084A
:10015000000000000000000000000000491400083A
:1001600049140008491400080000000000000000C5
:10017000000000000000000000000000000000007F
:10018000000000004914000800000000000000000A
:040190004914000806
:1001980010B5054C237833B9044B13B10448AFF3B9
:1001A80000800123237010BD04000020000000001F
:1001B800A414000808B5034B1BB103490348AFF367
:1001C800008008BD0000000008000020A4140008FA
:1001D80081F0004102E000BF83F0004330B54FEAF0
:1001E80041044FEA430594EA050F08BF90EA020F5D
:1001F8001FBF54EA000C55EA020C7FEA645C7FEAF0
:10020800655C00F0E2804FEA5454D4EB5555B8BF12
:100218006D420CDD2C4480EA020281EA030382EA83
:10022800000083EA010180EA020281EA0303362D15
:1002380088BF30BD11F0004F4FEA01314FF4801CE8
:100248004CEA113102D0404261EB410113F0004FFA
:100258004FEA03334CEA133302D0524263EB4303B1
:1002680094EA050F00F0A780A4F10104D5F1200E4F
:100278000DDB02FA0EFC22FA05F2801841F10001AA
:1002880003FA0EF2801843FA05F359410EE0A5F17E
:1002980020050EF1200E012A03FA0EFC28BF4CF0AF
:1002A800020C43FA05F3C01851EBE37101F0004565
:1002B80007D54FF0000EDCF1000C7EEB00006EEB72
:1002C8000101B1F5801F1BD3B1F5001F0CD34908FC
:1002D8005FEA30004FEA3C0C04F101044FEA445253
:1002E80012F5800F80F09A80BCF1004F08BF5FEADA
:1002F800500C50F1000041EB045141EA050130BDBA
:100308005FEA4C0C404141EB0101013C28BFB1F5CB
:10031800801FE9D291F0000F04BF01460020B1FA16
:1003280081F308BF2033A3F10B03B3F120020CDAE9
:100338000C3208DD02F1140CC2F10C0201FA0CF0C7
:1003480021FA02F10CE002F11402D8BFC2F1200C2C
:1003580001FA02F120FA0CFCDCBF41EA0C019040E2
:10036800E41AA2BF01EB0451294330BD6FEA04042B
:100378001F3C1CDA0C340EDC04F11404C4F1200216
:1003880020FA04F001FA02F340EA030021FA04F328
:1003980045EA030130BDC4F10C04C4F1200220FA7F
:1003A80002F001FA04F340EA0300294630BD21FABD
:1003B80004F0294630BD94F0000F83F4801306BF83
:1003C80081F480110134013D4EE77FEA645C18BF77
:1003D8007FEA655C29D094EA050F08BF90EA020F0E
:1003E80005D054EA000C04BF1946104630BD91EA06
:1003F800030F1EBF0021002030BD5FEA545C05D109
:100408004000494128BF41F0004130BD14F5800447
:100418003CBF01F5801130BD01F0004545F0FE41BB
:1004280041F470014FF0000030BD7FEA645C1ABFF0
:10043800194610467FEA655C1CBF0B46024650EA27
:10044800013406BF52EA033591EA030F41F4002153
:1004580030BD00BF90F0000F04BF0021704730B5D9
:100468004FF4806404F132044FF000054FF00001AE
:1004780050E700BF90F0000F04BF0021704730B56F
:100488004FF4806404F1320410F0004548BF404244
:100498004FF000013EE700BF42004FEAE2014FEA99
:1004A80031014FEA02701FBF12F07F4393F07F4F74
:1004B80081F06051704732F07F4208BF704793F077
:1004C8007F4F04BF41F40021704730B54FF460748A
:1004D80001F0004521F000411CE700BF50EA01028D
:1004E80008BF704730B54FF000050AE050EA010236
:1004F80008BF704730B511F0004502D5404261EBA6
:1005080041014FF4806404F132045FEA915C3FF4E6
:10051800D8AE4FF003025FEADC0C18BF03325FEA83
:10052800DC0C18BF033202EBDC02C2F1200300FA34
:1005380003FC20FA02F001FA03FE40EA0E0021FA59
:1005480002F11444BDE600BF70B54FF0FF0C4CF447
:10055800E06C1CEA11541DBF1CEA135594EA0C0FF9
:1005680095EA0C0F00F0DEF82C4481EA030621EA34
:100578004C5123EA4C5350EA013518BF52EA03356F
:1005880041F4801143F4801338D0A0FB02CE4FF021
:100598000005E1FB02E506F00042E0FB03E54FF051
:1005A8000006E1FB03569CF0000F18BF4EF0010E49
:1005B800A4F1FF04B6F5007F64F5407404D25FEA45
:1005C8004E0E6D4146EB060642EAC62141EA5551F8
:1005D8004FEAC52040EA5E504FEACE2EB4F1FD0C3A
:1005E80088BFBCF5E06F1ED8BEF1004F08BF5FEAB8
:1005F800500E50F1000041EB045170BD06F000466A
:1006080046EA010140EA020081EA0301B4EB5C0416
:10061800C2BFD4EB0C0541EA045170BD41F480110E
:100628004FF0000E013C00F3AB8014F1360FDEBF33
:10063800002001F0004170BDC4F10004203C35DA0F
:100648000C341BDC04F11404C4F1200500FA05F392
:1006580020FA04F001FA05F240EA020001F0004233
:1006680021F0004110EBD37021FA04F642EB0601A9
:100678005EEA430E08BF20EAD37070BDC4F10C04D3
:10068800C4F1200500FA04F320FA05F001FA04F297
:1006980040EA020001F0004110EBD37041F1000183
:1006A8005EEA430E08BF20EAD37070BDC4F120058E
:1006B80000FA05F24EEA020E20FA04F301FA05F2F6
:1006C80043EA020321FA04F001F0004121FA04F29E
:1006D80020EA020000EBD3705EEA430E08BF20EA6E
:1006E800D37070BD94F0000F0FD101F000464000A8
:1006F80041EB010111F4801F08BF013CF7D041EA2A
:10070800060195F0000F18BF704703F0004652002D
:1007180043EB030313F4801F08BF013DF7D043EAFE
:100728000603704794EA0C0F0CEA135518BF95EAB4
:100738000C0F0CD050EA410618BF52EA4306D1D13B
:1007480081EA030101F000414FF0000070BD50EA5A
:10075800410606BF1046194652EA430619D094EAE4
:100768000C0F02D150EA013613D195EA0C0F05D1CE
:1007780052EA03361CBF104619460AD181EA030122
:1007880001F0004141F0FE4141F470014FF00000DA
:1007980070BD41F0FE4141F4780170BD70B54FF075
:1007A800FF0C4CF4E06C1CEA11541DBF1CEA1355F5
:1007B80094EA0C0F95EA0C0F00F0A7F8A4EB0504D7
:1007C80081EA030E52EA03354FEA013100F08880CE
:1007D8004FEA03334FF0805545EA131343EA126397
:1007E8004FEA022245EA111545EA10654FEA00264C
:1007F8000EF000419D4208BF964244F1FD0404F505
:10080800407402D25B084FEA3202B61A65EB030560
:100818005B084FEA32024FF480104FF4002CB6EB1D
:10082800020E75EB030E22BFB61A754640EA0C009D
:100838005B084FEA3202B6EB020E75EB030E22BFDD
:10084800B61A754640EA5C005B084FEA3202B6EB1E
:10085800020E75EB030E22BFB61A754640EA9C00DD
:100868005B084FEA3202B6EB020E75EB030E22BFAD
:10087800B61A754640EADC0055EA060E18D04FEA6B
:10088800051545EA16754FEA06164FEAC30343EA0B
:1008980052734FEAC2025FEA1C1CC0D111F4801FD8
:1008A8000BD141EA00014FF000004FF0004CB6E7D1
:1008B80011F4801F04BF01430020B4F1FD0C88BF70
:1008C800BCF5E06F3FF6AFAEB5EB030C04BFB6EB7B
:1008D800020C5FEA500C50F1000041EB045170BD6E
:1008E8000EF0004E4EEA113114EB5C04C2BFD4EB9B
:1008F8000C0541EA045170BD41F480114FF0000E1F
:10090800013C90E645EA060E8DE60CEA135594EA9A
:100918000C0F08BF95EA0C0F3FF43BAF94EA0C0F9D
:100928000AD150EA01347FF434AF95EA0C0F7FF412
:1009380025AF104619462CE795EA0C0F06D152EA66
:1009480003353FF4FDAE1046194622E750EA41064A
:1009580018BF52EA43067FF4C5AE50EA41047FF45B
:100968000DAF52EA43057FF4EBAE12E74A0011D20D
:1009780012F5001211D20DD56FF47873B3EB6252F1
:100988000ED44FEAC12343F0004343EA505323FAFD
:1009980002F070474FF00000704750EA013002D172
:1009A8004FF0FF3070474FF00000704780B584B0BB
:1009B80000AF0346FB7100233B73FB797B7307F1A0
:1009C8000C0202233C21034800F0EAFB00BF103769
:1009D800BD4680BD0054004080B584B000AF0346DA
:1009E800FB7140233B73FB797B7307F10C020223F5
:1009F8003C21034800F0D4FB00BF1037BD4680BD42
:100A08000054004080B582B000AF786039603B6820
:100A1800002B05D07B68DBB21846FFF7DDFF05E049
:100A28007B68DBB21846FFF7C1FF00BF0837BD4639
:100A380080BD000080B483B000AF0346FB710B4655
:100A4800BB7113467B717B79002B1AD0BB79DB080D
:100A5800D8B20346DA01FB7913441B4AD35C5AB275
:100A6800BB7903F00703012101FA03F35BB21343D7
:100A780059B20346DA01FB791344C9B2124AD15478
:100A88001BE0BB79DB08D8B20346DA01FB791344D3
:100A98000D4AD35C5AB2BB7903F00703012101FA6E
:100AA80003F35BB2DB435BB2134059B20346DA018E
:100AB800FB791344C9B2044AD15400BF0C37BD4670
:100AC8005DF8047B704700BF2000002080B582B02D
:100AD80000AF0023FB7124E0FB79B03300211846F6
:100AE800FFF790FF00210020FFF78CFF0021102066
:100AF800FFF788FF0023BB710CE0FB79DA01BB79B3
:100B080013440C4AD35C01211846FFF77BFFBB79DD
:100B18000133BB7197F90630002BEEDAFB7901330C
:100B2800FB71FB79072BD7D900BF00BF0837BD463B
:100B380080BD00BF2000002080B582B000AF786083
:100B48007B68002B06D04FF48062FF21074800F035
:100B58009DFC05E04FF480620021044800F096FCFB
:100B6800FFF7B4FF00BF0837BD4680BD2000002056
:100B780080B500AFC82000F067F80021AE20FFF76D
:100B880041FF00210020FFF73DFF00211020FFF763
:100B980039FF00214020FFF735FF0021B020FFF783
:100BA80031FF00218120FFF72DFF0021FF20FFF7F3
:100BB80029FF0021A120FFF725FF0021A620FFF72C
:100BC80021FF0021A820FFF71DFF00213F20FFF78C
:100BD80019FF0021C820FFF715FF0021D320FFF7D8
:100BE80011FF00210020FFF70DFF0021D520FFF79E
:100BF80009FF00218020FFF705FF0021D920FFF71A
:100C080001FF0021F120FFF7FDFE0021DA20FFF7A8
:100C1800F9FE00211220FFF7F5FE0021DB20FFF787
:100C2800F1FE00213020FFF7EDFE00218D20FFF7B7
:100C3800E9FE00211420FFF7E5FE0021AF20FFF7B1
:100C4800E1FE00BF80BD000080B485B000AF7860D1
:100C5800144B00221A60134B134A5A60114B00229E
:100C68009A60104B1B680F4A43F00503136000237A
:100C7800FB6009E000BF0B4B1B6803F48033002BBB
:100C8800F9D0FB680133FB60FA687B689A42F1D3BC
:100C9800044B00221A6000BF1437BD465DF8047B80
:100CA800704700BF10E000E01F48010090B585B014
:100CB80000AF0446084611461A462346FB71034610
:100CC800BB710B467B7113463B710023FB736BE0D2
:100CD8000023BB735CE097F82430002B10D0FA7B1C
:100CE8007B790733002B00DA0733DB1003FB02F2B2
:100CF800BB7B13441A463B6A13441B783B7310E0D2
:100D0800FA7B7B790733002B00DA0733DB1003FB10
:100D180002F2BB7B13441A463B6A13441B78DB433D
:100D28003B7300237B732DE03A7B7B7B802141FA68
:100D380003F31340002B11D0BB7BDB00DAB2FB7945
:100D48001344DAB27B7B1344D8B2BA79FB7B1344E1
:100D5800DBB201221946FFF76DFE10E0BB7BDB001A
:100D6800DAB2FB791344DAB27B7B1344D8B2BA798E
:100D7800FB7B1344DBB200221946FFF75BFE7B7B4B
:100D880001337B737B7B072BCED9BB7B0133BB73D2
:100D9800BA7B7B790733002B00DA0733DB109A42E2
:100DA80099DBFB7B0133FB73FA7B3B799A428FD348
:100DB800FFF78CFE00BF1437BD4690BD80B582B0EA
:100DC80002AF00F0C5F800F0A3F800F03BF800F01F
:100DD800E7F81949194800F03FF9FFF7C9FE012063
:100DE800FFF7AAFE164B9B88DAB2154BDB88D9B2FF
:100DF800134B1B680120019000930B460021002033
:100E0800FFF754FF4FF4FA60FFF71EFF0C4B9B8867
:100E1800DAB20B4BDB88D9B2094B1B680020019072
:100E280000930B4600210020FFF740FF4FF4FA60C3
:100E3800FFF70AFFD6E700BF801A060000540040FB
:100E4800BC18000880B500AF00F062F82E4B5B6854
:100E58002D4A43F4800353602B4B5B682A4A23F0E6
:100E68003F035360284B5B68274A43F004035360F1
:100E7800254B5B68244A23F4FF4323F04003536067
:100E8800214B5B68204A43F4285353601E4B5B6830
:100E98001D4A23F4403353601B4B5B681A4A43F4E2
:100EA80080335360184B1B68174A43F080731360F4
:100EB80000BF154B1B6803F00073002BF9D0124BD1
:100EC80000229A60104B9B680F4A43F4805393604A
:100ED8000E4B1B680D4A23F0070313600B4B1B686E
:100EE8000A4A43F002031360074B9B68064A43F023
:100EF8000203936000BF044B9B6803F00803002BB8
:100F0800F9D000BF80BD00BF00380240003C02405D
:100F180080B500AF0D4B1B680C4A43F4A023136047
:100F280000BF0A4B1B6803F40033002BF9D0074BB2
:100F380001229A6000BF054B9B6803F00403002B55
:100F4800F9D000F0D5F900BF80BD00BF00380240DD
:100F580080B500AF104B1B680F4A43F40073136051
:100F68000D4B1B680C4A43F4806313600A4B1B68E3
:100F7800094A43F480731360084B5B6C074A43F4D7
:100F880080435364054B1B6C044A43F0805313643D
:100F980000F0AEF900BF80BD003C024000380240BE
:100FA80080B400AF294B1B6B284A43F0020313633C
:100FB800274B1B6823F44033254A43F4003313605E
:100FC800234B1B6823F44023214A43F40023136076
:100FD8001F4B5B681E4A43F4807353601C4B5B686D
:100FE8001B4A43F400735360194BDB6823F4403306
:100FF800174A43F48033D360154BDB6823F440234E
:10100800134A43F48023D360114B9B68104A43F47E
:10101800403393600E4B9B680D4A43F44023936022
:101028000B4B5B6A23F00F03094A43F00403536236
:10103800074B5B6A23F0F003054A43F04003536211
:1010480000BFBD465DF8047B704700BF0038024012
:10105800000402400000000080B584B000AF786052
:1010680039600023FB6000237B817B68484A9342F8
:1010780006D1484B1B6C474A43F40013136410E035
:101088007B68454A934206D1424B1B6C414A43F464
:101098008003136405E03F4B1B6C3E4A43F4000396
:1010A80013643B4B1B683A4A43F400431360384BC4
:1010B8001B68374A23F4004313607B684FF480624F
:1010C8001A602A23FB60FB6803F03F027B685A60C2
:1010D8000023FB60FB6843F0D203FB60FB6843F42A
:1010E8008043FB607B68FA689A600023FB603B687A
:1010F8002A4A93421AD13B685B001846FFF7AAF9BF
:1011080002460B4620A1D1E90001FFF747FB024642
:101118000B4610461946FFF729FC03467B817B895D
:10112800C3F30B03FA681343FB600FE0FB6843F457
:101138000043FB60FB6823F48043FB6023237B812F
:101148007B89C3F30B03FA681343FB607B68FA6877
:10115800DA613B68114A934202D12B23FB6001E01C
:101168000D23FB60FB6803F03F027B681A627B6813
:101178001B6843F001027B681A6000BF1037BD4648
:1011880080BD00BFAFF3008000000000F40684417A
:10119800005400400038024000580040A08601007A
:1011A80080B487B000AFF8607A603B600B46FB7292
:1011B8003B68002B59D07B68002B56D000BFFB68DA
:1011C8009B6903F00203002BF9D1FB681B6843F409
:1011D8008072FB681A6000BFFB685B6903F001035B
:1011E800002BF9D0FB7A5B00FB72FB7A23F001033A
:1011F800FB72FA7AFB681A6100BFFB685B6903F04F
:101208000203002BF9D0FB685B697B61FB689B6973
:101218007B617B6911E000BFFB685B6903F08003B9
:10122800002BF9D07B681B781A46FB681A617B682B
:1012380001337B603B68013B3B603B68002BEAD194
:1012480000BFFB685B6903F08003002BF9D000BF87
:10125800FB685B6903F00403002BF9D0FB681B688B
:1012680043F40072FB681A6000E000BF1C37BD46FB
:101278005DF8047B704780B400AFFEE780B400AF30
:10128800FEE780B400AFFEE780B400AFFEE780B4AD
:1012980000AFFEE780B400AF00BFBD465DF8047B39
:1012A800704780B400AF00BFBD465DF8047B70474F
:1012B80080B400AF00BFBD465DF8047B704780B4C2
:1012C80000AF00BFBD465DF8047B704780B400AF37
:1012D800064BD3F88830054A43F47003C2F88830C7
:1012E80000BFBD465DF8047B704700BF00ED00E01D
:1012F80080B487B000AF00233B6100237B610223E9
:10130800FB600023BB6002237B60344B9B6803F0C7
:101318000C033B613B69082B11D03B69082B44D86F
:101328003B69002B03D03B69042B04D03DE02C4BD8
:101338002C4A1A603DE02A4B2B4A1A6039E0274BA9
:101348005B689B0D03F00103BB60244B5B6803F0F3
:101358003F037B60BB68002B0CD0234A7B68B2FB41
:10136800F3F31E4A52689209C2F3080202FB03F320
:101378007B610BE01B4A7B68B2FBF3F3174A5268A8
:101388009209C2F3080202FB03F37B61134B5B680B
:101398001B0C03F0030301335B00FB607A69FB68F5
:1013A800B2FBF3F30E4A136003E00D4B0D4A1A60CB
:1013B80000BF0A4B9B681B0903F00F030B4AD35C61
:1013C8003B61074B1A683B6922FA03F3044A13602E
:1013D80000BF1C37BD465DF8047B704700380240EB
:1013E800000000200024F40000127A00C818000849
:1013F8000D488546FFF76AFF0C480D490D4A002342
:1014080002E0D458C4500433C4188C42F9D30A4AB1
:101418000A4C002301E013600432A242FBD300F01F
:1014280011F8FFF7CBFCFEE7008001200000002048
:1014380004000020E0180008040000202004002018
:10144800FEE7000070B50D4D0D4C641BA41000267E
:10145800A64209D10B4D0C4C00F020F8641BA410D7
:101468000026A64205D170BD55F8043B98470136C1
:10147800EEE755F8043B98470136F2E7D81800081C
:10148800D8180008D8180008DC18000802440346D9
:10149800934200D1704703F8011BF9E7F8B500BF84
:1014A800F8BC08BC9E467047F8B500BFF8BC08BC3D
:0414B8009E46704795
:1014BC00FFFFFFFFFFFFFFFFFFFFFFFFFFFFFFFF30
:1014CC00FFFFF803FFFFFFFFFFFFFFFFFFFFFFFF23
:1014DC00FFFF80001FFFFFFFFFFFFFFFFFFFFFFF6E
:1014EC00FFFE004403FFFFFFFFFFFFFFFFFFFFFFB7
:1014FC00FFFC110040FFFFFFFFFFFFFFFFFFFFFF9F
:10150C00FFF84301007FFFFFFFFFFFFFFFFFFFFF1F
:10151C00FFF807A4081FFFFFFFFFFFFFFFFFFFFF00
:10152C00FE000380010FFFFFFFFFFFFFFFFFFFFF28
:10153C00F80240002001FFFFFFFFFFFFFFFFFFFF4E
:10154C00FF08000080207FFFFFFFFFFFFFFFFFFF72
:10155C00FFF0101204801FFFFFFFFFFFFFFFFFFFD4
:10156C00FFF04240000007FFFFFFFFFFFFFFFFFF00
:10157C00FFF20000000901FFFFFFFFFFFFFFFFFF6D
:10158C00FFF800004880007FFFFFFFFFFFFFFFFF19
:10159C00FFF822120000481FFFFFFFFFFFFFFFFFB5
:1015AC00FFF8806000240007FFFFFFFFFFFFFFFF35
:1015BC00FFFC07C044800203FFFFFFFFFFFFFFFF9C
:1015CC00FFFC1FC9000120F0FFFFFFFFFFFFFFFF23
:1015DC00FFFE1FC0000407803FFFFFFFFFFFFFFF60
:1015EC00FFFE4FE012201E000FFFFFFFFFFFFFFF6B
:1015FC00FFFE1FF200007C4903FFFFFFFFFFFFFF10
:10160C00FFFF3FF04000F000007FFFFFFFFFFFFFF8
:10161C00FFFF1FE00249E100200FFFFFFFFFFFFF6C
:10162C00FFFF3FF80803C8120403FFFFFFFFFFFF93
:10163C00FFFF3FFC800000000040FFFFFFFFFFFFAB
:10164C00FFFF1FFF8089024091083FFFFFFFFFFF54
:10165C00FFFF0FFFE4002004000007FFFFFFFFFF68
:10166C00FFFF97FFF8100410042201FFFFFFFFFF9C
:10167C00FFFF87FFFC4100409000407FFFFFFFFF12
:10168C00FFFFC7FFFF8021000088080FFFFFFFFF4F
:10169C00FFFFE3FFFFF0040402012103FFFFFFFF44
:1016AC00FFFFF1FFFFFFF000901000200FFFFFFF86
:1016BC00FFFFF8BFFFFFFC200040840400FFFFFF8A
:1016CC00FFFFFC3FFFFFFF04040410800007FFFF37
:1016DC00FFFFFE3FFFFFFFF09000001120003FFFD7
:1016EC00FFFFFF1FFFFFFFFC012127FFC44003FF8B
:1016FC00FFFFFFC7FFFFFFFF800403FFFFE4003F76
:10170C00FFFFFFE3FFFFFFFFE41003FFFFFC900F61
:10171C00FFFFFFF8FFFFC0FF808093FFFFFFF9037F
:10172C00FFFFFFFC07FF017E000200FFFFFFFFFD34
:10173C00FFFFFFFF80F5040C4FF0083FFFFFFFFF9A
:10174C00FFFFFFFFF00000003FFF217FFFFFFFFFC7
:10175C00FFFFFFFFFE002041FFFFF01FFFFFFFFF19
:10176C00FFFFFFFFFFFE021FFFFFFE07FFFFFFFF54
:10177C00FFFFFFFFFFF0FC3FFFFFFFE7FFFFFFFF57
:10178C00FFFFFFFFFF83FC3FFFFFFFFFFFFFFFFF9C
:10179C00FFFFFFFFFE1FF87FFFFFFFFFFFFFFFFFB5
:1017AC00FFFFFFFFF07FF8FFFFFFFFFFFFFFFFFFD3
:1017BC00FFFFFFFFC0FFF1FFFFFFFFFFFFFFFFFF7A
:1017CC00FFFFFFFF83FFE3FFFFFFFFFFFFFFFFFFB5
:1017DC00C000F00E01FFC7FFFFFFFFFFFFFFFFFF81
:1017EC00C000000010810FFFFFFFFFFFFFFFFFFF96
:1017FC00C0020000003C0FFFFFFFFFFFFFFFFFFFD9
:10180C00C9200000420003FFFFFFFFFFFFFFF0FFB6
:10181C00C00011100000E00574000000000001FF82
:10182C00C00040010000000000000000000001FFAB
:10183C00E00400000022020000000000000001FF94
:10184C00C00000000080002000000044122225FF90
:10185C00C10000000408A156AAAAAA10800001FF2A
:10186C00D01000200000000000000000000000FF6D
:10187C00C00104008000000000000000011100FF06
:10188C008080100200000480800002444800247F05
:10189C00FFFFFFFFFFFFFFFFFFFFFFFFA5EFD07F65
:1018AC00FFFFFFFFFFFFFFFFFFFFFFFFFFFFFFFF3C
:1018BC00BC1400088000400008000000000000007C
:0C18CC00000000000102030406070809E8
:0418D800BD01000846
:0418DC009901000866
:0418E0000024F400EC
:04000005080013F9E3
:00000001FF
