:020000040800F2
:1000000000800120090A00088D08000893080008F4
:10001000990800089F080008A508000800000000D3
:10002000000000000000000000000000AB08000815
:10003000B908000800000000C7080008D50800083B
:1000400000000000590A0008590A0008590A00086F
:10005000590A0008590A0008590A0008590A0008F4
:10006000590A0008590A0008590A0008000000004F
:100070000000000000000000000000000000000080
:100080000000000000000000590A00080000000005
:10009000000000000000000000000000590A0008F5
:1000A000590A0008590A0008590A0008590A0008A4
:1000B000590A0008590A0008590A0008590A000894
:1000C000590A0008590A0008590A0008590A000884
:1000D000590A0008590A0008590A000800000000DF
:1000E000590A0008590A0008590A000800000000CF
:1000F0000000000000000000000000000000000000
:1001000000000000590A0008590A0008590A0008AE
:1001100000000000000000000000000000000000DF
:1001200000000000000000000000000000000000CF
:1001300000000000000000000000000000000000BF
:10014000000000000000000000000000590A000844
:10015000000000000000000000000000590A000834
:10016000590A0008590A00080000000000000000B9
:10017000000000000000000000000000000000007F
:1001800000000000590A0008000000000000000004
:04019000590A000800
:1001940010B5054C237833B9044B13B10448AFF3BD
:1001A40000800123237010BD040000200000000023
:1001B400B40A000808B5034B1BB103490348AFF365
:1001C400008008BD0000000008000020B40A0008F8
:1001D40080B485B000AF78600B46FB7000BF7B68CD
:1001E4009B6803F00203002BF9D07B680C33FA7888
:1001F4001A7000BF7B689B6803F00103002BF9D0E1
:100204007B68DB68FB73FB7B18461437BD465DF8DF
:10021400047B704780B582B000AF786039603B687A
:10022400002B03D00B4B01221A6002E0094B002281
:100234001A60094B00221A607B68DBB21946074832
:10024400FFF7C6FF044B01221A6000BF0837BD4602
:1002540080BD00BF8802404290024042003001400D
:1002640080B483B000AF0346FB710B46BB711346E9
:100274007B717B79002B1AD0BB79DB08D8B203469B
:10028400DA01FB7913441B4AD35C5AB2BB7903F0FD
:100294000703012101FA03F35BB2134359B2034686
:1002A400DA01FB791344C9B2124AD1541BE0BB7979
:1002B400DB08D8B20346DA01FB7913440D4AD35C58
:1002C4005AB2BB7903F00703012101FA03F35BB2CD
:1002D400DB435BB2134059B20346DA01FB791344A2
:1002E400C9B2044AD15400BF0C37BD465DF8047B43
:1002F400704700BF2000002080B582B000AF00230B
:10030400FB7124E0FB79B03300211846FFF782FF2C
:1003140000210020FFF77EFF00211020FFF77AFF65
:100324000023BB710CE0FB79DA01BB7913440C4A5E
:10033400D35C01211846FFF76DFFBB790133BB7114
:1003440097F90630002BEEDAFB790133FB71FB7968
:10035400072BD7D900BF00BF0837BD4680BD00BFFB
:100364002000002080B582B000AF78607B68002B4D
:1003740006D04FF48062FF21074800F091FB05E0AE
:100384004FF480620021044800F08AFBFFF7B4FFB9
:1003940000BF0837BD4680BD2000002080B500AFF7
:1003A400084B01221A60642000F0DEF8054B00229D
:1003B4001A60642000F0D8F8024B01221A6000BFD2
:1003C40080BD00BF8C02404280B400AF2C4B1B6B3D
:1003D4002B4A43F0010313632A4B1B6823F03003B9
:1003E400284A43F010031360264B1B6823F4407320
:1003F400244A43F480731360224B1B6823F0C00328
:10040400204A43F0400313601E4B9B681D4A43F48B
:10041400407393601B4B9B681A4A43F0300393600C
:10042400184B9B68174A43F0C0039360154BDB6875
:10043400144A23F44073D360124BDB68114A23F04F
:100444003003D3600F4BDB680E4A23F0C003D36044
:100454000C4B5B680B4A23F010035360094B5B6839
:10046400084A23F004035360064B5B68054A23F0F3
:100474000803536000BFBD465DF8047B704700BFAE
:10048400003802400000024080B500AFFFF79CFF37
:10049400C82000F069F8FFF781FF0021AE20FFF7C4
:1004A400B9FE00210020FFF7B5FE00211020FFF760
:1004B400B1FE00214020FFF7ADFE0021B020FFF780
:1004C400A9FE00218120FFF7A5FE0021FF20FFF7F0
:1004D400A1FE0021A120FFF79DFE0021A620FFF729
:1004E40099FE0021A820FFF795FE00213F20FFF789
:1004F40091FE0021C820FFF78DFE0021D320FFF7D5
:1005040089FE00210020FFF785FE0021D520FFF79A
:1005140081FE00218020FFF77DFE0021D920FFF716
:1005240079FE0021F120FFF775FE0021DA20FFF7A4
:1005340071FE00211220FFF76DFE0021DB20FFF782
:1005440069FE00213020FFF765FE00218D20FFF7B2
:1005540061FE00211420FFF75DFE0021AF20FFF7AC
:1005640059FE00BF80BD000080B485B000AF786044
:10057400144B00221A60134B43F67F625A60114BEE
:1005840000229A600F4B1B680E4A43F00503136068
:100594000023FB6009E000BF0A4B1B6803F48033AF
:1005A400002BF9D0FB680133FB60FA687B689A4240
:1005B400F1D3044B00221A6000BF1437BD465DF826
:1005C400047B704710E000E090B585B000AF0446AE
:1005D400084611461A462346FB710346BB710B4677
:1005E4007B7113463B710023FB736BE00023BB73E9
:1005F4005CE097F82430002B10D0FA7B7B7907332A
:10060400002B00DA0733DB1003FB02F2BB7B13443D
:100614001A463B6A13441B783B7310E0FA7B7B79E0
:100624000733002B00DA0733DB1003FB02F2BB7B3A
:1006340013441A463B6A13441B78DB433B73002381
:100644007B732DE03A7B7B7B802141FA03F31340DB
:10065400002B11D0BB7BDB00DAB2FB791344DAB296
:100664007B7B1344D8B2BA79FB7B1344DBB20122FF
:100674001946FFF7F5FD10E0BB7BDB00DAB2FB792E
:100684001344DAB27B7B1344D8B2BA79FB7B1344AC
:10069400DBB200221946FFF7E3FD7B7B01337B735A
:1006A4007B7B072BCED9BB7B0133BB73BA7B7B79B6
:1006B4000733002B00DA0733DB109A4299DBFB7B0C
:1006C4000133FB73FA7B3B799A428FD3FFF714FE15
:1006D40000BF1437BD4690BD80B582B002AF00F0B4
:1006E40021F800F00FF900F047F80C4800F070F81A
:1006F400FFF7CAFE0120FFF735FE094B9B88DAB2EB
:10070400074BDB88D9B2064B1B680120019000938C
:100714000B4600210020FFF757FFFEE700300140A1
:10072400CC0E000880B400AF114B1B68104A43F490
:10073400007313600E4B1B680D4A43F4806313600F
:100744000B4B1B680A4A43F480731360094B5B6CC0
:10075400084A43F480435364064B1B6C054A43F038
:100764008053136400BFBD465DF8047B704700BF2F
:10077400003C02400038024080B400AF124B1B6BB7
:10078400114A43F001031363104B1B680F4A23F40F
:100794007C4313600D4B1B680C4A43F428431360DD
:1007A4000A4B1B6A094A43F0AA4343F4A0031362A9
:1007B400064B9B68054A43F47C43936000BFBD46E7
:1007C4005DF8047B704700BF00380240000002401F
:1007D40080B483B000AF78607B68284A934206D126
:1007E400274B5B6C264A43F48053536410E07B68C8
:1007F400244A934206D1224B1B6C214A43F4804382
:10080400136405E01E4B1B6C1D4A43F40043136440
:100814001A4B1B68194A23F038031360174B1B68E3
:10082400164A23F003031360144B1B68134A23F482
:1008340000631360114B1B68104A23F0800313609C
:100844000E4B1B680D4A43F4007313600B4B1B687B
:100854000A4A43F480731360084B1B68074A43F049
:1008640004031360054B1B68044A43F04003136000
:1008740000BF0C37BD465DF8047B70470030014073
:10088400003802400038004080B400AFFEE780B476
:1008940000AFFEE780B400AFFEE780B400AFFEE730
:1008A40080B400AFFEE780B400AF00BFBD465DF882
:1008B400047B704780B400AF00BFBD465DF8047B85
:1008C400704780B400AF00BFBD465DF8047B70473D
:1008D40080B400AF00BFBD465DF8047B70470000E4
:1008E40080B400AF064BD3F88830054A43F4700354
:1008F400C2F8883000BFBD465DF8047B704700BF76
:1009040000ED00E080B487B000AF00233B6100231A
:100914007B610223FB600023BB6002237B60344BBA
:100924009B6803F00C033B613B69082B11D03B69C6
:10093400082B44D83B69002B03D03B69042B04D01B
:100944003DE02C4B2C4A1A603DE02A4B2B4A1A609E
:1009540039E0274B5B689B0D03F00103BB60244B1C
:100964005B6803F03F037B60BB68002B0CD0234A19
:100974007B68B2FBF3F31E4A52689209C2F3080281
:1009840002FB03F37B610BE01B4A7B68B2FBF3F3CE
:10099400174A52689209C2F3080202FB03F37B610F
:1009A400134B5B681B0C03F0030301335B00FB6018
:1009B4007A69FB68B2FBF3F30E4A136003E00D4B54
:1009C4000D4A1A6000BF0A4B9B681B0903F00F0312
:1009D4000B4AD35C3B61074B1A683B6922FA03F369
:1009E400044A136000BF1C37BD465DF8047B7047A2
:1009F40000380240000000200024F40000127A00B5
:100A0400D80E00080D488546FFF76AFF0C480D49CB
:100A14000D4A002302E0D458C4500433C4188C4255
:100A2400F9D30A4A0A4C002301E013600432A242BB
:100A3400FBD300F011F8FFF74FFEFEE70080012022
:100A44000000002004000020F00E00080400002034
:100A540020040020FEE7000070B50D4D0D4C641B12
:100A6400A4100026A64209D10B4D0C4C00F020F82E
:100A7400641BA4100026A64205D170BD55F8043BA2
:100A840098470136EEE755F8043B98470136F2E7FC
:100A9400E80E0008E80E0008E80E0008EC0E000856
:100AA40002440346934200D1704703F8011BF9E75F
:100AB400F8B500BFF8BC08BC9E467047F8B500BF47
:080AC400F8BC08BC9E46704717
:100ACC00FFFFFFFFFFFFFFFFFFFFFFFFFFFFFFFF2A
:100ADC00FFFFF803FFFFFFFFFFFFFFFFFFFFFFFF1D
:100AEC00FFFF80001FFFFFFFFFFFFFFFFFFFFFFF68
:100AFC00FFFE004403FFFFFFFFFFFFFFFFFFFFFFB1
:100B0C00FFFC110040FFFFFFFFFFFFFFFFFFFFFF98
:100B1C00FFF84301007FFFFFFFFFFFFFFFFFFFFF19
:100B2C00FFF807A4081FFFFFFFFFFFFFFFFFFFFFFA
:100B3C00FE000380010FFFFFFFFFFFFFFFFFFFFF22
:100B4C00F80240002001FFFFFFFFFFFFFFFFFFFF48
:100B5C00FF08000080207FFFFFFFFFFFFFFFFFFF6C
:100B6C00FFF0101204801FFFFFFFFFFFFFFFFFFFCE
:100B7C00FFF04240000007FFFFFFFFFFFFFFFFFFFA
:100B8C00FFF20000000901FFFFFFFFFFFFFFFFFF67
:100B9C00FFF800004880007FFFFFFFFFFFFFFFFF13
:100BAC00FFF822120000481FFFFFFFFFFFFFFFFFAF
:100BBC00FFF8806000240007FFFFFFFFFFFFFFFF2F
:100BCC00FFFC07C044800203FFFFFFFFFFFFFFFF96
:100BDC00FFFC1FC9000120F0FFFFFFFFFFFFFFFF1D
:100BEC00FFFE1FC0000407803FFFFFFFFFFFFFFF5A
:100BFC00FFFE4FE012201E000FFFFFFFFFFFFFFF65
:100C0C00FFFE1FF200007C4903FFFFFFFFFFFFFF09
:100C1C00FFFF3FF04000F000007FFFFFFFFFFFFFF2
:100C2C00FFFF1FE00249E100200FFFFFFFFFFFFF66
:100C3C00FFFF3FF80803C8120403FFFFFFFFFFFF8D
:100C4C00FFFF3FFC800000000040FFFFFFFFFFFFA5
:100C5C00FFFF1FFF8089024091083FFFFFFFFFFF4E
:100C6C00FFFF0FFFE4002004000007FFFFFFFFFF62
:100C7C00FFFF97FFF8100410042201FFFFFFFFFF96
:100C8C00FFFF87FFFC4100409000407FFFFFFFFF0C
:100C9C00FFFFC7FFFF8021000088080FFFFFFFFF49
:100CAC00FFFFE3FFFFF0040402012103FFFFFFFF3E
:100CBC00FFFFF1FFFFFFF000901000200FFFFFFF80
:100CCC00FFFFF8BFFFFFFC200040840400FFFFFF84
:100CDC00FFFFFC3FFFFFFF04040410800007FFFF31
:100CEC00FFFFFE3FFFFFFFF09000001120003FFFD1
:100CFC00FFFFFF1FFFFFFFFC012127FFC44003FF85
:100D0C00FFFFFFC7FFFFFFFF800403FFFFE4003F6F
:100D1C00FFFFFFE3FFFFFFFFE41003FFFFFC900F5B
:100D2C00FFFFFFF8FFFFC0FF808093FFFFFFF90379
:100D3C00FFFFFFFC07FF017E000200FFFFFFFFFD2E
:100D4C00FFFFFFFF80F5040C4FF0083FFFFFFFFF94
:100D5C00FFFFFFFFF00000003FFF217FFFFFFFFFC1
:100D6C00FFFFFFFFFE002041FFFFF01FFFFFFFFF13
:100D7C00FFFFFFFFFFFE021FFFFFFE07FFFFFFFF4E
:100D8C00FFFFFFFFFFF0FC3FFFFFFFE7FFFFFFFF51
:100D9C00FFFFFFFFFF83FC3FFFFFFFFFFFFFFFFF96
:100DAC00FFFFFFFFFE1FF87FFFFFFFFFFFFFFFFFAF
:100DBC00FFFFFFFFF07FF8FFFFFFFFFFFFFFFFFFCD
:100DCC00FFFFFFFFC0FFF1FFFFFFFFFFFFFFFFFF74
:100DDC00FFFFFFFF83FFE3FFFFFFFFFFFFFFFFFFAF
:100DEC00C000F00E01FFC7FFFFFFFFFFFFFFFFFF7B
:100DFC00C000000010810FFFFFFFFFFFFFFFFFFF90
:100E0C00C0020000003C0FFFFFFFFFFFFFFFFFFFD2
:100E1C00C9200000420003FFFFFFFFFFFFFFF0FFB0
:100E2C00C00011100000E00574000000000001FF7C
:100E3C00C00040010000000000000000000001FFA5
:100E4C00E00400000022020000000000000001FF8E
:100E5C00C00000000080002000000044122225FF8A
:100E6C00C10000000408A156AAAAAA10800001FF24
:100E7C00D01000200000000000000000000000FF67
:100E8C00C00104008000000000000000011100FF00
:100E9C008080100200000480800002444800247FFF
:100EAC00FFFFFFFFFFFFFFFFFFFFFFFFA5EFD07F5F
:100EBC00FFFFFFFFFFFFFFFFFFFFFFFFFFFFFFFF36
:100ECC00CC0A000880004000080000000000000070
:0C0EDC00000000000102030406070809E2
:040EE800B901000844
:040EEC009501000864
:040EF0000024F400E6
:0400000508000A09DC
:00000001FF
